:100000000C9465510C9409520C9409520C940952A9
:100010000C9409520C9409520C9409520C940952F4
:100020000C9409520C9409520C9409520C940952E4
:100030000C9409520C9439540C9409520C940952A2
:100040000C9409520C9409520C9409520C940952C4
:100050000C9409520C9409520C9409520C940952B4
:100060000C9409520C9409520C9409520C940952A4
:100070005A5501200101003808000000000000006E
:100080000000000000000000000000000000000070
:10009000F256005799574F5B395B03571257215758
:1000A0001F5B2F573D5700020800085504085A00EF
:1000B00000F8000990000A1E32050000FF00000051
:1000C000A60000000000000000000000000000008A
:1000D0000000000000000000000000000000000020
:1000E0000000000000000000000000000000000010
:1000F0000000000000000000000000000000000000
:1001000000000000000000000000000000000000EF
:1001100000000000000000000000000000000000DF
:100120000000000000490000000000495252000099
:10013000004952531C25004952522425251B525276
:100140005C2D2D1C121200000000000000000000B9
:1001500000004049494900404949525B5B5B4A52B3
:10016000525B1C1C13125B1C241C12090909241B62
:1001700012090909090A0A0A0A0A0A0A0A130A0AD2
:10018000120A0A12130A0000000000000000925236
:1001900052525252524913121309001C1B130A12D5
:1001A00012401B65641C090A0009241B1C6512000F
:1001B00000251C1C1C1C010025241C1C1C1C0024CC
:1001C000252424241C1C00000000000000004940DD
:1001D00000000000000052494900000000001C5BC4
:1001E0004A48000000001C25524900000000652418
:1001F00064490000000065256449000000006D2E80
:100200005C490000000000000000000040520000B7
:1002100000000049525C00000000535224250000F9
:1002200000535225252500004A5225251B000000B9
:100230005B251300001B005B53000A1C3737095B6A
:100240001C657F372E2E522E2E1C131312002E25C6
:100250001B13120000121C1C12000012251C12009D
:1002600000122E371C1300132E37361C131B373782
:100270002E2E25131C1C2E2E2E2E1B1C1C1C6E6EAF
:100280006E1C1C1C1C1C09131312121313001313D5
:100290001313131C0009131313131C01003713133A
:1002A000131C13002E2E1B1B1C1C001C772E1B1B4B
:1002B0002500137F251C1C1C010A37241C1C1C1341
:1002C0000A2E25250900132E2425252525252E2532
:1002D00025252525252525252D2E251B1C1C2E2EC7
:1002E000251C13251B13251C1C1C1C0109521C1C3E
:1002F0001300011C5B5C0A000165775C1B00016E4A
:100300007F6E521B00006D1C5249000000001C1340
:100310005300000000001C524A00000000005B5B1C
:100320000000000000005C00000000000000000071
:1003300000000000000000000000000000000000BD
:10034000000000000000135B7F776E6E6E6E136519
:1003500077766E6E6E6E1B65777676766E771B5B44
:10036000BF76B676767609136DBFB7B6B765001B54
:10037000125C76BF766D0000121B125B5B5C0000A6
:100380000000090A12136E77241C1C1C1C1C772504
:100390001C1C1C1C24256E1C1C1C2425251B1C1C21
:1003A000242525130000646D6D1B00096EBF6D5B75
:1003B00009126EBF6D5B5B125B645B121312131B41
:1003C0001212090100001C242E1C0900096E2524AC
:1003D000010009767F7F000012777F7F641264BF7F
:1003E000BF775B121B09BF6D5B121B090000121364
:1003F0001B090000000009000000000000000000D0
:100400000000000000007F7F5313130000006412FF
:100410001B01000000001B12000000000000000093
:1004200000000000000000000000000000000000CC
:1004300000000000000000000000000000000000BC
:100440000000000000000000000000000000260086
:100450000000260026262F0000002F000000370095
:10046000000037000000FF000000FF000000BF0098
:100470000000BF0000BF3700003700003700002633
:1004800026000000262600000000000000002626AE
:1004900026002626262600002F002F000000003709
:1004A000000037000000FF000000FFFFFFFF00001A
:1004B0000000BF00000000000000370000002626FA
:1004C0002600262626260000000000000000260048
:1004D00026262626000000002F0000002F00000026
:1004E0003700000037000000FFFFFFFF00000000A2
:1004F000BF000000BF0000003700000037002600EA
:100500002626262600000000000000000000000053
:10051000262626002600002F00002F002F0037007F
:10052000000037000037FF000000FF000000BF00A0
:100530000000BF0000BF370000370000370026264C
:10054000260000002600000000000000000000005F
:1005500026000000000000002F000000000000370F
:10056000000000000000FF0000000000000000BFCD
:100570000000000000000000370000000000000044
:100580002600000000000000000000000000000045
:10059000000000000000000000000000000000005B
:1005A0000000000000E400000000099BEDF60000E0
:1005B000009BA4ADBFBF00529BA4767F7FB75B9B1F
:1005C0006D777F766EB7000000000000000000002D
:1005D00000005BB6F6F6005BF6FFFFFFFFBFF6FF1D
:1005E000FFFFFFBFBFAEFFBFFFFFFFB7AD65BFBFE0
:1005F000FFFFB7B6AD65B7BFFFFFBFB7AE6EB7BF02
:10060000FFFFBFB7B7650000000000000000F6F66E
:10061000EDEDADA4A49BB66D6D5C526E6564656531
:10062000655265766D255C5C52536E24656E65522D
:10063000526E252524255B52772D25252524526EC3
:100640006E2D2525252500000000000000009B4997
:10065000000000000000A49B920000000000256440
:10066000934900000000652E9B52000000006D259C
:100670006552000000006D2D6552000000006E2ED6
:10068000645200000000000000000000495B000010
:100690000000004A5B65000000005B9B6D2D0000C0
:1006A000005B5B2D2E250000525B2E2E1C090001E5
:1006B0005B2D1C01091C005C5B014A65777F4A5B6E
:1006C0001C6E7F7777769B77776D656E6EA4776EFD
:1006D0006565655BA4B725255C52526DBFBF1309E4
:1006E00049647FBFBFBF095C7F7FBFBFB7BF7F7F4C
:1006F000777F7FB7BFBF77777F7F6EB7BFBF777FCB
:100700007F6E77BFBFBFB6FFFFFFBFBFB75BBFFF47
:10071000FFFFBFBFA464BFFFFFFFBFADA47FBFFF4C
:10072000FFFFBFA4BF7FFFFFFFBFADBFBFBFFFFF86
:10073000FFB6BFBFBF77FFFFF7BFBFBF7777FFFF32
:10074000FFBFBFBF64526D7F6E2E2D2D256E7F764D
:100750006E6E6E2E2565777777762E1C25247F7733
:100760006E251C251C1B776525251C090A5B6E6EF2
:100770001C09492564645B494A6E7F645C005377B9
:10078000BF775B5C00006E255B4A000000001C1B0D
:100790005B0000000000245B5300000000005B5C75
:1007A00000000000000064000000000000000000E5
:1007B0000000000000000000000000000000000039
:1007C0000000000000005B5C7FBF777677775C6D90
:1007D0007FB7777777775C6D7FBF777777BF5C641C
:1007E000BFBFBFBFBF7F0A5C6EBFBFBFBF76006524
:1007F000646DBFBFBFBF00005B6D646DADB6000030
:100800000000125B646D777F6E6E77BFBFBF7F762F
:100810006D7677BFBFBF776D6E767FBFBFBF6D6EE2
:10082000767FBFB7ADF676BFBF76A4ADFFFFBFB68C
:1008300064ADFFFFFFFFB6ADBFFFFFFFFFF6ADB634
:10084000AD645B520000FFFFBFBFAD5B64BFFFFF45
:10085000B6ADADBFFFBFFFF6FFFFFFFFBF64FFFFF9
:10086000FFFFBFB6765BFFFFFFBFBF5B0000FFFF70
:10087000FF5C00000000A400000000000000000079
:10088000000000000000BFBF645C5C0000006E5C04
:100890006549000000006D5B0000000000000000E2
:1008A0000000000000000000000000000000000048
:1008B0000000000000000000000000000000000038
:1008C0000000000000000504000102030405060703
:1008D00008090A0B0C0D000E0F101112050300136E
:1008E0001415161718191A1B1C1D1E1F000040880E
:1008F00091D2E4ADB5B6BEBFFF10101010101010AD
:1009000010101010101010101010101010101010E7
:1009100010101010101010101010101010101010D7
:1009200010101010101010101010101010101010C7
:100930001010101010101010102020202020202047
:1009400020202020202020202020202020202020A7
:100950002020202020202020202020202020202097
:100960002020202020202020202020202020202087
:1009700020202020202020202010101010101010E7
:100980001010101010101010101010101010101067
:100990001010101010101010101010101010101057
:1009A0001010101010101010101010101010101047
:1009B00010101010101010000020202020202020E7
:1009C0002020202020202020202020202020202027
:1009D0000020202020200000E02020200000E0E077
:1009E000E0200000E0E0E0E0E000E0E0E0E0E0E067
:1009F000E0E0E0E0E0E0E0E0E010101010101000B7
:100A000000101000000000E0E00000E0E0E0E0E0A6
:100A1000E0E0E0E0E0E0E0E0E0E0E0E0E0E0E0E0D6
:100A2000E0E0E0E0E0E0E0E0E0E0E0E0E0E0E0E0C6
:100A3000E0E0E0E0E0E0E0E0E000000000000000D6
:100A400000E0E0E0E0E0E0E0E0E0E0E0E0E0E0E086
:100A5000E0E0E0E0E0E0E0E0E0E0E0E0E0E0E0E096
:100A6000E0E0E0E0E0E0E0E0E0E0E0E0E0E0E0E086
:100A7000E0E0E0E0E0E0E0E0E00000000000000096
:100A800000E0004F4F4F4F4F4FE0004F4F4F4F4F41
:100A90004FE0004F4F4F4F4F4FE0004F4F4F4F4FE2
:100AA0004FE0004F4F4F4F4F4FE0004F4F4F4F4FD2
:100AB0004FE0004F4F4F4F4F4F000000000000002D
:100AC000004F4F4F4F4F4F4F4F4F4F4F4F4F4F4F85
:100AD0004F4F4F4F4F4F4F4F4F4F4F4F4F4F4F4F26
:100AE0004F4F4F4F4F4F4F4F4F4F4F4F4F4F4F4F16
:100AF0004F4F4F4F4F4F4F4F4F000000000000002F
:100B0000004F4F4F4F4F4F4F004F4F4F4F4F4F4F93
:100B10004F4F4F4F4F4F4F4F4F4F4F4F4F4F4F4FE5
:100B20004F4F4F4F4F4F4F4F4F4F4F4F4F4F4F4FD5
:100B30004F4F4F4F4F4F4F4F4F202020202020200E
:100B40002000000000202020204F4F4F4F000000C9
:100B5000204F4F4F4F4F4F4F004F4F4F4F4F4F4F23
:100B60004F4F4F4F4F4F4F4F4F4F4F4F4F4F4F4F95
:100B70004F4F4F4F4F4F4F4F4F101010101010103E
:100B80001010101010101010101010101010101065
:100B90001000101010101010104F00001010101046
:100BA000104F4F4F00001010104F4F4F4F4F00008D
:100BB000104F4F4F4F4F4F4F00202020202020201C
:100BC0002020202020202020202020202020202025
:100BD0002020202020202020202020202020202015
:100BE0002020202020202020202020202020202005
:100BF0002000202020202020201010101010101085
:100C000010101010101010101010101010101010E4
:100C100010101010101010101010101010101010D4
:100C200010101010101010100010101010101010D4
:100C30000010101010101000E0202020202000E0F4
:100C4000E02020200000E0E0E0202000E0E0E0E004
:100C5000E02000E0E0E0E0E0E000E0E0E0E0E0E014
:100C6000E0E0E0E0E0E0E0E0E0E0E0E0E0E0E0E084
:100C7000E0E0E0E0E0E0E0E0FFE0E0E0E0E0E0E055
:100C8000E0E0E0E0E0E0E0E0E0E0E0E0E0E0E0FF45
:100C9000FFE0E0E0E0FFFFFFFFE0E0FFFFFFFFFF1E
:100CA000FFE0FFFFFFFFFFFFFFFFFFFFFFFFFFE092
:100CB000E0FFFFFFFFE0E0E0E0E0E0E0E0E0E0E0B8
:100CC000E0FFFFFFFFE0E0E0E0FFFFFFFFFFE0E00D
:100CD000E0FFFFFFFFFFE0E0E0FFFFFFFFE0E0E0FD
:100CE000E0FFE0E0E0E0E0E0E0E0E0E0E0E0E0E0E5
:100CF000E0E0E0E0E0E0E0E0E0E0E0E0E0FFFFFF97
:100D0000FFE0E0E0FFFFFFFFFFE0E0E0FFFFFFFFAD
:100D1000FFE0E0E0E0FFFFFFFFE0E0E0E0E0E0E038
:100D2000E0E0E0E0E0E0E0E0E0E0E0E0E0E0E0E0C3
:100D3000E0E0E0E0E0E0E0E0E0FFFFFFFFFFFFFFDA
:100D4000FFFFFFFFFFFFFFFFFFFFFFFFFFFFFFFFB3
:100D5000FFFFFFFFFFFFFFFFFFE0E0E0E0E0E0E07C
:100D6000E0E0E0E0E0E0E0E0E0E0E0E0E0E0E0E083
:100D7000E0E0E0E0E0E0E0E0E0FF00FFFFFFFFFF99
:100D8000FFFF00FFFFFFFFFFFFFF00FFFFFFFFFF71
:100D9000FFFF00FFFFFFFFFFFFE0004F4F4F4F4FF0
:100DA0004FE0004F4F4F4F4F4FE0004F4F4F4F4FCF
:100DB0004FE0004F4F4F4F4F4FFFFFFFFFFFFFFF31
:100DC000FFFFFFFFFFFFFFFFFFFFFFFFFFFFFFFF33
:100DD000FFFFFFFFFFFFFFFFFF4F4F4F4F4F4F4FF3
:100DE0004F4F4F4F4F4F4F4F4F4F4F4F4F4F4F4F13
:100DF0004F4F4F4F4F4F4F4F4FFFFFFFFF4F4F4F43
:100E00004FFFFFFFFFFF4F4F4FFFFFFFFFFF4F4F12
:100E10004FFFFFFFFF4F4F4F4F4F4F4F4F4F4F4F22
:100E20004F4F4F4F4F4F4F4F4F4F4F4F4F4F4F4FD2
:100E30004F4F4F4F4F4F4F4F4F4F4F4F4F4F4F4FC2
:100E40004F4F4F4F4F4F4F4F4F4F4F4F4F4F4F4FB2
:100E50004F4F4F4F4F4F4F4F4F4F4F4F4F4F4F4FA2
:100E60004F4F4F4F4F4F4F4F4F4F4F4F4F4F4F4F92
:100E70004F4F4F4F4F4F4F4F4F4F0010101010100C
:100E8000104F4F0000101010104F4F4F4F00101018
:100E9000104F4F4F4F4F0010104F4F4F4F4F4F00BD
:100EA000104F4F4F4F4F4F4F004F4F4F4F4F4F4FE0
:100EB0004F4F4F4F4F4F4F4F4F202020202020208B
:100EC0002020202020202020202020202020202022
:100ED0002020202020202020202020202020202012
:100EE0002020202020202020200020202020202022
:100EF000200020202020202020202020202000E072
:100F0000E0202020202000E0E02020202000E0E061
:100F1000E02020202000E0E0E020202000E0E0E0D1
:100F2000E020202000E0E0E0E020202000E0E0E001
:100F3000E0202000E0E0E0E0E0E0E0E0E0E0E0FFF2
:100F4000FFE0E0E0E0E0E0FFFFE0E0E0E0E0E0FF25
:100F5000FFE0E0E0E0E0E0E0E0E0E0E0E0E0E0E072
:100F6000E0E0E0E0E0E0E0E0E0E0E0E0E0E0E0E081
:100F7000E0E0E0E0E0E0E0E0E0FFFFE0E0E0E0E033
:100F8000E0FFE0E0E0E0E0E0E0E0E0E0E0E0E0E042
:100F9000E0E0E0E0E0E0E0E0E0E0E0E0E0E0E0E051
:100FA000E0E0E0E0E0E0E0E0E0E0E0E0E0E0E0E041
:100FB000E0E0E0E0E0E0E0E0E0E0E0E0E0E0E0E031
:100FC000E0E0E0E0E0E0E0E0E0E0E0E0E0E0E0E021
:100FD000E0E0E0E0E0E0E0E0E0E0E0E0E0E0E0E011
:100FE000E0E0E0E0E0E0E0E0E0E0E0E0E0E0E0E001
:100FF000E0E0E0E0E0E0E0E0E0E0E0E0E0E0E0E0F1
:10100000E0E0E0E0E0E0E0E0E0E0E0E0E0E0E0E0E0
:10101000E0E0E0E0E0E0E0E0E0E0E0E0E0E0E0E0D0
:10102000E0E0E0E0E0E0E0E0E0E0E0E0E0E0E0E0C0
:1010300000E0E0E0E0E0E00000E0E0E0E0E0E0E050
:10104000E0E0E0E0E0E0E0E0E0E0E0E0E0E0E0E0A0
:10105000E0E0E0E0E0E0E0E0E0E0E0E0E0E0E0E090
:10106000E0E0E0E0E0E0E0E0E000000000000000A0
:10107000000000000000000000E0E0E0E0E0E0E050
:10108000E0E0E0E0E0E0E0E0E0E0E0E0E0E0E0E060
:10109000E0E0E0E0E0E0E0E0E0E0E0E0E0E0E0E050
:1010A000E0E0E0E0E0E0E0E0E000E0E0E0E0E0E020
:1010B000E00000E0E0E0E0E000E0E0E0E0E0E0E0D0
:1010C000E0E0E0E0E0E0E0E0E0E0E0E0E0E0E0E020
:1010D000E0E0E0E0E0E0E0E0E0E0E0E0E0E0E0E010
:1010E000E0E0E0E0E0E0E0E0E00000E0E0E0E0E0C0
:1010F000E0000000E0E0E00000E0004F4F4F4F4F05
:101100004FE0004F4F4F4F4F4FE0004F4F4F4F4F6B
:101110004FE0004F4F4F4F4F4FE0004F4F4F4F4F5B
:101120004FE0004F4F4F4F4F4F00000000000000B6
:101130000000000000000000004F4F4F4F4F4F4F86
:101140004F4F4F4F4F4F4F4F4F4F4F4F4F4F4F4FAF
:101150004F4F4F4F4F4F4F4F4F4F4F4F4F4F4F4F9F
:101160004F4F4F4F4F4F4F4F4F00000000000000B8
:101170000000000000000000004F4F4F4F4F4F4F46
:101180004F4F4F4F4F4F4F4F4F4F4F4F4F4F4F4F6F
:101190004F4F4F4F4F4F4F4F4F4F4F4F4F4F4F4F5F
:1011A0004F4F4F4F4F4F4F4F4F004F4F4F4F4F4F9E
:1011B000000000004F4F4F00004F4F4F4F4F4F4F19
:1011C0004F4F4F4F4F4F4F4F4F4F4F4F4F4F4F4F2F
:1011D0004F4F4F4F4F4F4F4F4F4F4F4F4F4F4F4F1F
:1011E0004F4F4F4F4F4F4F4F4F004F4F4F4F4F4F5E
:1011F0004F0000004F4F4F4F004F4F4F4F4F4F4F3B
:101200004F4F4F4F4F4F4F4F4F4F4F4F4F4F4F4FEE
:101210004F4F4F4F4F4F4F4F4F4F4F4F4F4F4F4FDE
:101220004F4F4F4F4F4F4F4F4F0000004F4F4F4FBB
:101230004F000000004F4F4F4F4F4F4F4F4F4F4FFA
:101240004F4F4F4F4F4F4F4F4F4F4F4F4F4F4F4FAE
:101250004F4F4F4F4F4F4F4F4F4F4F4F4F4F4F4F9E
:101260004F4F4F4F4F4F4F4F4F4F4F4F4F4F4F00DD
:10127000004F4F4F00000000004F4F4F4F4F4F4F58
:101280004F4F4F4F4F4F4F4F4F4F4F4F4F4F4F4F6E
:101290004F4F4F4F4F4F4F4F4F4F4F4F4F4F4F4F5E
:1012A0004F4F4F4F4F4F4F4F4F0000000000004F28
:1012B0004F00000000000000004F4F4F4F4F4F4FB6
:1012C0004F4F4F4F4F4F4F4F4F4F4F4F4F4F4F4F2E
:1012D0004F4F4F4F4F4F4F4F4F4F4F4F4F4F4F4F1E
:1012E0004F4F4F4F4F4F4F4F4F4F4F4F4F4F4F4F0E
:1012F0004F004F4F4F4F4F4F4F4F001010101010D7
:10130000104F4F0010101010104F4F001010101001
:10131000104F4F4F00101010104F4F4F0010101073
:10132000104F4F4F4F001010104F4F4F4F001010E5
:10133000104F4F4F4F00101010101000E0E0E0E091
:10134000E0101000E0E0E0E0E01000E0E0E0E0E0CD
:10135000E01000E0E0E0E0E0E01000E0E0E0E0E0ED
:10136000E01000E0E0E0E0E0E01000E0E0E0E0E0DD
:10137000E000E0E0E0E0E0E0E0E0E0E0E0E0E0E04D
:1013800000E0E0E0E0E0000000E0E0E0E00000007D
:1013900000E0E0E00000002F2FE0E0E000002F2F51
:1013A0002FE0E0E000002F2F2FE0E0E000002F2FE3
:1013B0002FE0E0E00000002F2F0000000000000000
:1013C0000000000000000000002F2F2F2F2F2F2FD4
:1013D0002F2F2F2F2F2F2F2F2F2FFFFFFFFFFFFF3D
:1013E000FFFFFF2F2F2F2F2F2FFFFF2F2F2F2F2FFD
:1013F0002F2F2F2F2F2F2F2F2F0000000000E0E086
:10140000E000000000000000E02F2F2F2F00000060
:10141000002F2F2F2F2F2F0000FF2F2F2F2F2F2F99
:101420002F2F2F2F2F2F2F2F2F2F2F2F2F2F2F2FCC
:101430002F2F2F2F2F2F2F2F2FE0E0E0E0E0E0E0E5
:10144000E0E0E0E0E0E0E0E0E000E0E0E0E0E0E07C
:10145000E00000E0E0E0E0E0E0000000E0E0E0E0EC
:10146000E02F000000E0E0E0E02F2F000000E0E0CF
:10147000E02F2F2F0000E0E0E0E0E0E0E0E00000FF
:1014800000E0E0E0E0E000002FE0E0E0E0E000006D
:101490002FE0E0E0E0E000002FE0E0E0E0E000002E
:1014A0002FE0E0E0E0E000002FE0E0E0E0E0E0003E
:1014B00000E0E0E0E0E0E000002F2F2F2F2F2F2FA3
:1014C0002F2F2F2F2F2F2F2F2F2F2FFFFFFF2F2FBC
:1014D0002F2FFFFF2F2F2F2F2F2FFFFF2F2F2F2FDC
:1014E0002F2F2F2F2F2F2F2F2F2F2F2F2F2F2F2F0C
:1014F0002F002F2F2F2F2F2F2F0000E0E0E0E0E014
:10150000002F0000E0E0E000002F0000E0E0E0003D
:10151000002F2F0000E000002F2F2F0000E0000020
:101520002F2F2F2F0000002F2F2F2F2F0000002FE5
:101530002F2F2F2F2F002F2F2F002F2F2F2F2F2F19
:101540002F2F2F2F2F2F2F2F2F2F2F2FFFFFFF2F3B
:101550002F2F2FFFFF2F2F2F2F2F2FFFFF2F2F2F5B
:101560002F2F2F2F2F2F2F2F2F2F2F2F2F2F2F2F8B
:101570002F2F2F2F2F2F2F2F2F2F000000E00000B5
:10158000002F2F0000E000002F2F2F0000E00000B0
:101590002F2F2F0000E000002F2F2F0000E0000071
:1015A0002F2F000000E00000002F0000E0E0E0002E
:1015B00000000000E0E0E0E000002F2F2F2F2F2F91
:1015C0002F2F2F2F2F2F2F2F2F2F2FFFFFFFFFFF1B
:1015D000FF2FFFFF2F2F2F2F2F2FFFFF2F2F2F2F0B
:1015E0002F2F2F2F2F2F2F2F2F002F2F2F2F2F2F3A
:1015F0002F002F2F2F2F2F2F2F2F2F2F2F2F2F2F2A
:101600002F2F2F2F2F2F2F2F2FFFFFFFFF2F2F2FAA
:101610002F2F2F2F2F2F2F2F2F2F2F2F2F2F2F2FDA
:101620002F2F2F2F2F2F2F2F2F2F2F2F2F2F2F2FCA
:101630002F002F2F2F2F2F2F002F0000004F0000E3
:10164000002F2F00004F00002F2F2F00004F000011
:101650002F2F2F00004F00002F2F2F00004F0000D2
:101660002F2F0000004F0000000000004F4F4F00E0
:101670000000004F4F4F4F00002F2F2F2F2F2F2FE5
:101680002F2F2F2F2F2F2F2F2F2F2FFFFFFFFFFF5A
:10169000FF2FFFFF2F2F2F2F2F2FFFFF2F2F2F2F4A
:1016A0002F2F2F2F2F2F2F2F2F2F2F2F2F2F2F2F4A
:1016B0002F002F2F2F2F2F2F2F2F2F2F2F2F2F2F69
:1016C0002F2F2F2F2F2F2F2F2FFFFFFFFFFFFF2F4A
:1016D0002F2F2F2F2F2F2F2F2F2F2F2F2F2F2F2F1A
:1016E0002F2F2F2F2F2F2F2F2F2F2F2F2F2F2F2F0A
:1016F0002F000000002F2F2F2F000000004F4F0061
:10170000002F2F0000004F00002F2F2F00004F0050
:10171000002F2F2F00000000002F2F2F2F00000080
:10172000002F2F2F2F000000002F2F2F2F2F000012
:10173000002F2F2F2F2F000000002F2F2F2F2F2FA4
:101740002F2F2F2F2F2F2F2F2F2F2F2FFFFFFFFF69
:10175000FF2F2FFFFF2F2F2F2F2F2FFFFF2F2F2F89
:101760002F002F2F2F2F2F2F2F002F2F2F2F2F2FE7
:101770002F00002F2F2F2F2F2F2F2F0000004F4F24
:101780004F2F2F2F00004F4F4F2F2F2F00004F4F65
:10179000002F2F2F00004F00002F2F2F00000000E0
:1017A000002F2F2F000000002F2F2F00000000001F
:1017B0002F2F00000000002F2F4F0000000000001E
:1017C0002F000000002F2F2F2F00002F2F2F2F2F43
:1017D000FF002F2F2F2FFFFF2F2F2F2F2FFFFF2F38
:1017E0002F2F2FFF2FFF2F2F2F2F2FFF2F2F2F2F99
:1017F0002F2FFF2F2F2F2F2F2F2F2F2F2F2F000087
:10180000002F2F2F2F2F2F2F2FFF2F2F2F2F2F2F47
:101810002F2F2F2F2F2F2F2F2F2F2F2F2F2F2F2FD8
:101820002F2F2F2F2F2F2F2F2F2F2F2F2F2F2F2FC8
:101830002F2F2F2F2F2F2F2F2F0000004F4F4F4FC5
:101840004F000000004F4F4F4F2F2F0000004F4F11
:101850004F2F2F2F0000004F4F2F2F2F2F00000052
:101860004F2F2F2F2F2F00004F2F2F2F2F2F000004
:10187000002F2F2F2F2F2F00004F4F4F4F4F0020A3
:10188000204F4F4F4F4F0020204F4F4F4F4F0020C2
:10189000204F4F4F4F4F4F00204F4F4F4F4F4F0054
:1018A000204F4F4F4F4F4F00204F4F4F4F4F4F0044
:1018B000204F4F4F4F4F4F002000E0E0E0E0E0E0CE
:1018C000E000E0E0E0E0E0E0E000E0E0E0E0E0E0D8
:1018D000E000E0E0E0E0E0E0E000E0E0E0E0E0E0C8
:1018E000E000E0E0E0E0E0E0E000E0E0E0E0E0E0B8
:1018F000E000E0E0E0E0E0E0E0E0E0E0E000002F39
:101900002FE0E0E0E00000002FE0E0E0E0E0000099
:1019100000E0E0E0E0E0E00000E0E0E0E0E0E00047
:1019200000E0E0E0E0E0E00000E0E0E0E0E0E00037
:1019300000E0E0E0E0E0E000002F2F2F2F2F2F2F1E
:101940002F2F2F2F2F2F2F2F2F2F2F2F2F2F2F2FA7
:10195000002F2FFF2F2F2F2F002F2FFF2F2F2F2F55
:10196000002F2FFF2F2F2F2F002F2FFF2F2F2F2F45
:10197000002F2FFF2F2F2F2F002F2F2F2F2F2F2F05
:101980002F2F2F2F2F2F2F2F2F0000002F2F2F2FF4
:101990002F000000002F2F2F2F00E00000002F2F1E
:1019A0002F00E0E000002F2F2F00E0E00000002FCC
:1019B0002F00E0E0E000002F2F2F2F2F000000E08D
:1019C000E02F2F2F2F0000E0E02F2F2F2F0000E01F
:1019D000E02F2F2F2F000000E02F2F2F2F2F0000A0
:1019E000002F2F2F2F2F0000002F2F2F2F2F000021
:1019F000002F2F2F2F2F000000E0E0E0E0E0E0E0DC
:101A0000E0E0E0E0E0E0E0E0E0E0E0E0E0E0E0E0D6
:101A1000E0000000000000E0E00000000000000026
:101A2000E0002F2F2F2F000000002F2F2F2F00005E
:101A3000002F2F2FFF2F2F0000E0E0E0E0E0E0E09C
:101A4000E0E0E0E0E0E0E0E0E0E0E0E0E0E0E0E096
:101A5000E0E0000000000000E000000000000000E6
:101A60000000002F2F2F2F0000002F2F2F2F2F2FA0
:101A7000002F2F2FFF2F2F2F00E0E0E0E0E0E0E02D
:101A8000E0E0E0E0E0E0E0E0E0E0E0E0E0E0E0E056
:101A9000E0E0E0E0E0E0E0E0E0E0E0E0E0E0E0E046
:101AA000E000E0E0E0E0E0E0E000E0E0E0E0E0E0F6
:101AB000E000E0E0E0E0E0E0E0E0E0E0E0E0E0E006
:101AC00000E0E0E0E0E0E0E0E0E0E0E0E0E0E0E0F6
:101AD000E0E0E0E0E0E0E0E0E0E0E0E0E0E0E0E006
:101AE000E0E0E0E0E0E0E0E0E0E0E0E0E0E0E0E0F6
:101AF000E0E0E0E0E0E0E0E0E000002F2F2F2F2F1B
:101B00002F00002F2F2F2F2F2F00002F2FFF2F2FD1
:101B10002F00002F2FFF2F2F2F00002F2FFF2F2FF1
:101B20002F00002F2FFF2F2F2F00002F2FFF2F2FE1
:101B30000000002F2FFF2F2F002F2F2F2F2F2F2FA1
:101B40002F2F2F2F2F2F2F2F2F2F2F2F2F2F2F2FA5
:101B50002F2F2F2F2F2F2F2F2F2F2F2F2F2F2F2F95
:101B60002F002F2F2F2F2F2F2F002F2F2F2F2F2FE3
:101B70002F00002F2F2F2F2F002F2F2F2F2F2F2F02
:101B8000002F2F2F2F2F2F2F002F2F2F2FFF2F2FF3
:101B9000002F2F2F2FFF2F2F002F2F2F2FFF2F2F13
:101BA00000002F2F2FFF2F2F0000002F2FFF2F2F90
:101BB0000000002F2FFF2F2F000000E0E0E0E0E00A
:101BC0000000E0E0E0E0E0E00000E0E0E0E0E00075
:101BD0000000E0E0E0E0E0000000E0E0E0E0E00045
:101BE0000000E0E0E0E000002F00E0E0E0E00000C6
:101BF0002F00E0E0E0E000002F002F2FFF2F2F2F1D
:101C000000002F2FFF2F2F00002F2FFF2F2F2F002F
:101C1000002F2FFF2F2F0000002F2FFF2F2F00004E
:101C2000002FFF2F2F2F2F00002FFF2F2F2F2F2FB1
:101C30002F2FFF2F2F2FFF2F2F00002F2F2F2F2F72
:101C40002F0000002F2F2F2F2F4F00002F2F2F2F6F
:101C50002F4F0000002F2F2F2F000000002F2F2FBD
:101C60002F0000002F2F2F2F2F2F2F2F2F2F2F2F11
:101C70002F2F2F2FFF2F2F2F2F00004F4F4F4F4F62
:101C80000000004F4F4F4F4F4F0000004F4F4F4F3E
:101C90004F2F00004F4F4F4F4F2F00004F4F4F4FD0
:101CA0004F2F0000004F4F4F4F2F2F00004F4F4F2F
:101CB0004F2F2F00004F4F4F4F00002F2FFF2F2F80
:101CC0000000002F2FFF2F2F0000002F2FFF2F2F9E
:101CD0000000002F2FFF2F2F0000002F2FFF2F2F8E
:101CE0002F00002F2FFF2F2F2F00002F2FFF2F2F20
:101CF000FF00002F2FFF2F2F2F00000000002F2F9D
:101D00002F004F4F0000002F2F004F4F0000002FDB
:101D10002F00000000002F2F2F000000002F2F2F7A
:101D2000FF2F2F2F2F2F2F2F2F2F2F2F2FFF2F2F23
:101D30002FFFFFFFFF2F2F2F2F2F2F2F2F2F0000D1
:101D40004FFFFF2F2F2F00004FFFFF2F2F2F0000DF
:101D50004FFF2F2F2F2F00004F2F2F2F2F0000006E
:101D60004F2F2F2F2F00004F4F2F2F2F0000004FEE
:101D70004F2F2F0000004F4F4F0000002F2FFF2F3D
:101D80002F4F00002F2FFF2F2F4F00002F2FFF2F3F
:101D90002F4F00002F2FFF2F2F4F00002F2FFF2F2F
:101DA0002F4F00002F2FFF2F2F4F00002F2FFF2F1F
:101DB0002F4F00002F2FFF2F2F0000004F00002F6C
:101DC0002F00004F0000002F2F00004F00002F2F8A
:101DD0002F00004F00002F2F2F00004F00002F2F4B
:101DE0002F00004F00002F2F2F00004F00002F2F3B
:101DF0002F00004F00002F2F2F2FFF2F2F2F2F2FBF
:101E00002F2F2F2F2F2F2F2F2F2F2F2F2F2F2F2FE2
:101E1000002F2F2F2F2F2F00002F2F2F2F2F2F008E
:101E2000002F2F2F2F2F0000002F2F2F2F2F0000DC
:101E30004F2F2F2F2F2F00004F2F2F2F2F2F2F2FD0
:101E40002F000000002F2F2F2F00000000002F2F49
:101E50002F004F4F0000002F2F4F4F4F4F00002FEC
:101E60002F4F4F4F4F0000002F4F4F4F4F4F00004D
:101E70002F4F4F4F4F4F00002F2F2F2F2F2F2F005F
:101E8000002F2F2F2F2F2F00002F2F2F2F2F2F2FEF
:101E900000FF2F2F2F2F2F2F002FFF2F2F2F2F2F10
:101EA000002FFF2F2F2F2F2F002FFF2F2F2F2F2F00
:101EB000002FFF2F2F2F2F2F004F4F4F4F4F4F4FE0
:101EC0004F004F4F4F4F4F4F4F004F4F4F4F4F4FC0
:101ED0004F004F4F4F4F4F4F4F004F4F4F4F4F4FB0
:101EE0004F004F4F4F4F4F4F4F004F4F4F4F4F4FA0
:101EF0004F004F4F4F4F4F4F4F4F4F4F4F4F4F4F41
:101F0000004F4F4F4F4F4F4F004F4F4F4F4F4F4F7F
:101F1000004F4F4F4F4F4F4F004F4F4F4F4F4F4F6F
:101F2000004F4F4F4F4F4F4F004F4F4F4F4F4F4F5F
:101F3000004F4F4F4F4F4F4F0000E0E0E0E0E0E038
:101F4000E000E0E0E0E0E0E0E000E0E0E0E0E0E051
:101F5000E000E0E0E0E0E0E0E000E0E0E0E0E0E041
:101F6000E01000E0E0E0E0E0E01000E0E0E0E0E0D1
:101F7000E01000E0E0E0E0E0E0E0E0E0E0E0E000F1
:101F800000E0E0E0E0E0E00000E0E0E0E0E0E000D1
:101F900000E0E0E0E0E0E00000E0E0E0E0E0E000C1
:101FA00000E0E0E0E0E0E00000E0E0E0E0E0E000B1
:101FB00000E0E0E0E0E00000002F2FFF2F2F2F2FA8
:101FC000002F2FFF2F2F2F2F002F2FFF2F2F2F2FDF
:101FD000002F2FFF2F2F2F2F002F2FFF2F2F2F2FCF
:101FE000002F2FFF2F2F2F2F002F2F2F2F2F2F2F8F
:101FF000002F2F2F2F2F2F2F2F00E0E0E000002F9A
:102000002F00E0E0E000002F2F00E0E0E000002FD4
:102010002F00E0E00000002F2F00E0E000002F2F55
:102020002F00E00000002F2FFF000000002F2F2FB7
:10203000FF0000002F2F2F2F2FFF2F2F2F2F0000FB
:1020400000FF2F2F2F2F000000FF2F2F2F2F00001A
:1020500000FF2F2F2F2F000000FF2F2F2F2F00000A
:10206000002F2F2F2F2F0000002F2F2F2F2F00009A
:10207000002F2F2F2F000000002F2FFFFF2F2F2FBB
:102080002F2F2FFFFF2F2F2F2F2F2F2F2F2F2F2FC0
:102090002F2F2FFF2F2F2F2F2F2F2FFF2F2F2F2FB0
:1020A000002F2FFF2F2F2F00002F2FFF2F2F2F005C
:1020B000002F2FFF2F2F2F00002F2FFFFF2F2F2F4D
:1020C000002F2FFF2F2F2F2F002F2F2F2F2F2F00DD
:1020D0000000000000000000000000000000000000
:1020E000E000E0E0E0E0E0E0E0E0E0E0E0E0E0E0D0
:1020F000E0E0E0E0E0E0E0E0E000E0E0E0E0E0E0C0
:10210000E000E0E0E0E0E0E0E000E0E0E0E0E0E08F
:10211000E0E0E0E0E0E0E0E0E0E0E0E0E0E0E0E0BF
:10212000E0E0E0E0E0E0E0E0E0E0E0E0E0E0E0E0AF
:10213000E0E0E0E0E0E0E0E0E0E0E0E0E0E0E0E09F
:10214000E0E0E0E0E0E0E0E0E0E0E0E0E0E0E0E08F
:10215000E0E0E0E0E0E0E0E0E0E0E0E0E0E0E0E07F
:10216000E0E0E0E0E0E0E0E0E0E0E0E0E0E0E0E06F
:10217000E0E0E0E0E0E0E0E00000002F2FFF2F2FA4
:102180000000002F2FFF2F2F0000002F2FFF2F2FD9
:102190000000002F2FFF2F2F0000002F2F2F2F2F99
:1021A0000000002F2F2F2F2F0000002F2F2F2F2F59
:1021B0000000002F2F2F2F2F0000002F2F2F2F2F49
:1021C000000000002F2F2F00000000002F2F2F00F5
:1021D0000000E000002F0000E000E000002F000001
:1021E000E000E0E0000000E0E000E0E0000000E0EF
:1021F000E00000E0E0E0E0E00000E0E0E000002FD0
:102200002F00E0E0E000002F2F00E0E0E000002FD2
:102210002F00E0E000002F2FFF00E0E000002F2F54
:10222000FF00E0E000002F2F2F00E000002F2F2FF5
:102230002F000000002F2F2F2FFF2F2F2F2F2FFFCA
:10224000FFFF2F2F2F2F2F2F2FFF2F2F2F2F2F2F2E
:102250002F2F2F2F2F000000002F2F2F0000000006
:10226000002F2F2F00004F4F4F2F2F0000004F4FF8
:102270004F2F2F0000004F4F4FFFFFFF2F2F2F2F0B
:102280002F2F2F2F2F2F2F2F2F2F2F2F2F2F2F2F5E
:102290002F00000000002F2F2F0000000000002F53
:1022A0002F4F4F4F4F00002F2F4F4F4F4F00000029
:1022B0002F4F4F4F4F0000002F2F2F0000004F4F88
:1022C0004F2F2F2F00004F4F4F2F2F2F00004F4F1A
:1022D0004F2F2F2F0000004F4F2F2F2F2F00004F79
:1022E0004F2F2F2F2F00004F4F2F2F2F2F00000089
:1022F0004F2F2F2F2F2F00000000002F2FFF2F2FE9
:102300002F00002F2FFF2F2F2F00002F2FFF2F2FF9
:102310002F00002F2FFF2F2F0000002F2F2F2F2FE8
:102320000000002F2F2F2F2F0000002F2F2F2F2FD7
:102330000000002F2F2F2F2F002F2F2F2F2F2F2F69
:102340002F2F2F2F2F2F2F2F2F0000002F2F2F2F2A
:10235000FF000000002F2F2FFF004F00002F2F2F16
:102360002F004F0000002F2F2F004F4F00002F2F66
:102370002F00004F0000002F2F2F0000004F4F4F65
:102380004F2F00004F4F4F4F4F2F2F00004F4F4FF9
:102390004F2F2F00004F4F4F4FFF2F0000004F4F88
:1023A0004FFF2F2F00004F4F4F2FFF2F0000004FE8
:1023B0004F2FFF2F2F00004F4F4F00002F2FFF2FC9
:1023C0002F4F00002F2FFF2F2F4F00002F2FFF2FF9
:1023D0002F4F00002F2FFF2F2F4F00002F2FFF2FE9
:1023E0002F4F00002F2F2F2F2F4F00002F2F2F2F79
:1023F0002F00002F2F2F2F2F2F00004F00002F2FE7
:102400002F00004F00002F2F2F00004F00002F2F14
:102410002F00004F00002F2F2F00004F0000002F33
:102420002F00004F4F00002F2F00004F4F00002FB4
:102430002F0000004F0000002F2F2F2F2F2F000004
:10244000002F2F2F2F2F2F00002F2F2F2F2F2F0058
:10245000002F2F2F2F2F2F2F002F2F2F2F2F2F2FEA
:102460002F2F2F2F2F2F2F2F2F2F2F2F2F2F2F2F7C
:10247000FF2F2F2F2F2F2F2F2F4F4F4F4F000000A9
:102480002F4F4F4F4F00002F2F004F4F0000002FB6
:102490002F00000000002F2F2F000000002F2F2FF3
:1024A0002F2F2F2F2F2F2F2F2F2F2F2F2FFF2F2F6C
:1024B0002FFFFFFFFF2F2F2F2F2FFF2F2F2F2F2F1C
:1024C000002FFF2F2F2F2F2F00FF2F2F2F2F2F2FDA
:1024D000002F2F2F2F2F2F2F002F2F2F2F2F2F2F6A
:1024E000002F2F2F2F2F2F00002F2F2F2F2F2F00B8
:1024F000002F2F2F2F2F2F0000004F4F4F4F4F4FE8
:102500004F004F4F4F4F4F4F4F004F4F4F4F4F4F79
:102510004F004F4F4F4F4F4F4F004F4F4F4F4F4F69
:102520004F4F4F4F4F4F4F4F4F4F4F4F4F4F4F4FBB
:102530004F4F4F4F4F4F4F4F4F4F4F4F4F4F4F4FAB
:10254000004F4F4F4F4F4F4F004F4F4F4F4F4F4F39
:10255000004F4F4F4F4F4F4F004F4F4F4F4F4F4F29
:10256000004F4F4F4F4F4F4F004F4F4F4F4F4F0068
:10257000204F4F4F4F4F4F00202000E0E0E0E0E0C1
:10258000E02000E0E0E0E0E0E0202000E0E0E0E04B
:10259000E0202000E0E0E0E0E0202000E0E0E0E0FB
:1025A000E020202000E0E0E0E020202000E0E0E06B
:1025B000E020202000E0E0E0E0E0E0E0E0000000DB
:1025C00000E0E0E00000002F2FE0E0E000002F2F0F
:1025D0002FE0E0E000002F2F2FE0E0E000002F2FA1
:1025E0002FE0E0E000002F2F2FE0E0E00000002FC0
:1025F0002FE0E0E0E0000000002F2F2F2F2F2F2FE3
:102600002F2FFF2F2F2F2F2FFFFFFF2F2F2F2F2F9A
:102610002FFFFF2F2F2F2F2F2F2F2F2F2F2F2F2F2A
:102620002F2F2F2F2F2F2F2F2F2F2F2F2F2F2F2FBA
:102630002F2F2F2F2F2F2F2F2F2F2F2F2F2F2F2FAA
:102640002F2F2F2FFF2F2F2F2FFFFFFF2F2F2F2F5A
:102650002F2F2F2F2F2F2F2F2F2F2F2F2F2F2F2F8A
:102660002F2F2F2F2F2F2F2F2F2F2F2F2F2F2F00A9
:10267000002F2F2F2F000000002F2F2F2F000000E2
:10268000002F2F2F00000000002F2F2F0000E00050
:10269000002F2F0000E0E000002F000000E0E0002D
:1026A00000000000E0E0E000000000E0E0E0E0000A
:1026B0000000E0E0E0E0E0E0002F2FFF2F2F2F00F0
:1026C000002F2FFF2F2F2F00002F2FFF2F2F2F0036
:1026D000002F2FFF2F2F2F00002F2F2F2F2F2F00F6
:1026E000002F2F2F2F2F2F0000002F2F2F2F000014
:1026F00000002F2F2F2F0000E0E0E0E0E0E0E0E01E
:10270000E0E0E0E0E0E0E0E0E0E0E0E0E0E0E0E0C9
:10271000E0E0E0E0E0E0000000E0E0E0E0000000F9
:1027200000E0E0E0E00000002FE0E0E0E000002F4B
:10273000FFE0E0E0E000002FFFE0E0E0E0E0E0E0CC
:10274000E0E0E0E0E0E0E0E0E0E0E0E0E0E0E0E089
:10275000E0000000E0E0E0E0E000000000E0E0E099
:10276000E02F000000E0E0E0E0FF2F0000E0E0E00C
:10277000E0FF2F0000E0E0E0E0E0E0E0E0E0E0008B
:1027800000E0E0E0E0E0E00000E0E0E0E0E00000A9
:1027900000E0E0E0E0E000002FE0E0E0E0E000004A
:1027A0002FE0E0E0E0E0000000E0E0E0E0E000003A
:1027B00000E0E0E0E0E0E00000002F2F2F2F2F2FBF
:1027C0002F2F2F2F2F2F2F2F2F2F2F2F2F2F2F2F19
:1027D0002F2F2F2F2F2F2F2F2F2F2F2F2F2F2F2F09
:1027E0002F2F2F2F2F2F2F2F2F0000000000000042
:1027F000000000000000000000000000E0E0E00039
:10280000002F0000E0E0E000002F2F0000E00000BB
:10281000002F2F0000E000002F2F2F0000E000000D
:102820002F2F000000E000000000000000E000008A
:1028300000000000E0E0E00000002F2F2F2F2F2FDE
:102840002F2F2F2FFF2F2F2F2F2F2FFFFF2F2F2F28
:102850002F2F2FFFFF2F2F2F2F2F2F2F2F2F2F2FE8
:102860002F2F2F2F2F2F2F2F2F00000000000000C1
:102870000000000000000000000000002F2F2F2F9C
:102880002F2F00002F2F2FFF2F2F2F2F2F2FFFFF46
:102890002F2F2F2F2F2FFFFF2F2F2F2F2F2F2F2FA8
:1028A0002F2F2F2F2F2F2F2F2F0000000000000081
:1028B0000000000000000000002F2F2F0000004F3C
:1028C0004F2F2F2F2F00004F4F2F2F2F2F000000A3
:1028D0004F2F2F2F2F2F00004F2F2F2F2F2F000084
:1028E0004F2F2F2F2F0000004F000000000000008E
:1028F0004F0000000000004F4F4F4F4F00000000FE
:102900002F4F4F4F00002F2F2F4F4F0000002F2F22
:10291000FF4F4F00002F2F2FFF4F4F00002F2F2F63
:102920002F4F4F0000002F2F2F4F4F0000000000AF
:10293000004F4F4F00000000002F2F2F2F2F0000BF
:1029400000FF2F2F2F2F2F0000FF2F2F2F2F2F2F84
:102950002FFF2F2F2F2F2F2F2F2F2F2F2F2F2F2FB7
:102960002F2F2F2F2F2F2F2F2F00000000000000C0
:102970000000000000000000000000004F00002FD9
:102980002F2F00004F0000002F2F0000004F0000ED
:102990002F2F2F00004F0000002F2F00004F4F005F
:1029A000002F2F00004F4F0000000000004F4F4F3E
:1029B000000000004F4F4F4F002F2FFF2F0000004F
:1029C000002F2FFF2F2F0000002F2F2F2F2F2F0032
:1029D000002F2F2F2F2F2F2F2F2F2F2F2F2F2F2F36
:1029E0002F002F2F2F2F2F2F2F000000000000006F
:1029F000000000000000000000002F2F2F2F2F2FBD
:102A00002F002F2F2FFF2F2F2F2F2F2FFFFF2F2F95
:102A10002F2F2F2FFFFF2F2F2F2F2F2F2F2F2F2F26
:102A20002F2F2F2F2F2F2F2F2F00000000000000FF
:102A30000000000000000000002F0000004F000018
:102A40002F2F2F00004F0000002F2F0000004F00FD
:102A5000002F2F2F00004F4F002F2F2F00004F4F20
:102A60004F2F2F0000004F4F4F00000000004F4F2E
:102A70004F000000004F4F4F4F2F2F2F2F2F2F2F82
:102A80002F2F2F2F2F2F2F2F2F002F2F2F2F2F2F85
:102A90002F00002F2F2F2F2F2F000000002F2F2F60
:102AA0002F4F0000000000002F4F4F4F000000008C
:102AB000004F4F4F4F4F4F00002F2F2F2F2F2F2FF3
:102AC0002F2F2F2F2F2F2F2F2F2F2F2F2F2F2F2F16
:102AD0002F2F2F2F2F2F2F2F2F2F2F2F2F2F2F2F06
:102AE0002F2F2F2F2F2F00000000000000000000CC
:102AF000000000000000004F4F2F2F2F2F2F00004D
:102B00004F2F2F2F2F0000004F2F2F2F0000004F8F
:102B10004F2F2F0000004F4F4F000000004F4F4F2E
:102B20004F0000004F4F4F4F4F004F4F4F4F4F4FF1
:102B30004F4F4F4F4F4F4F4F4F4F4F4F4F4F4F00F4
:102B4000104F4F4F4F4F4F00104F4F4F4F4F4F00B1
:102B5000104F4F4F4F4F0010104F4F4F4F4F00101F
:102B6000104F4F4F4F4F0010104F4F4F4F0010104E
:102B7000104F4F4F4F001010101010101000E0E0D9
:102B8000E01010101000E0E0E0101010101000E055
:102B9000E0101010101000E0E010101010101000E5
:102BA000E010101010101010001010101010101065
:102BB000001010101010101010E0E0E0E0E0E0E075
:102BC000E0E0E0E0E0E0E0E0E0E0E0E0E0E0E0E005
:102BD000E0E0E0E0E0E0E0E0E0E0E0E0E0E0E0E0F5
:102BE000E0E0E0E0E0E0E0E0E0E000E0E0E0E0E0C5
:102BF000E000E000E0E0E0E0E0E0E0E0E0E0000055
:102C000000E0E0E0E0E0E0E000E0E0E0E0E0E0E084
:102C1000E0E0E0E0E0E0E0E0E0E0E0E0E0E0E0E0B4
:102C2000E0E0E0E0E0E0E0E0E0E0E0E0E0E0E0E0A4
:102C3000E0E0E0E0E0E0E0E0E000000000000000B4
:102C4000000000000000000000E0E0E0E0E0E0E064
:102C5000E0E0E0E0E0E0E0E0E0E0E0E0E0E0E0E074
:102C6000E0E0E0E0E0E0E0E0E0E0E0E0E0E0E0E064
:102C7000E0E0E0E0E0E0E0E0E00000000000000074
:102C8000E00000000000E0E0E0E0E0E0E0E0E0E0A4
:102C9000E0E0E0E0E0E0E0E0E0E0E0E0E0E0E0E034
:102CA000E0E0E0E0E0E0E0E0E0E0E0E0E0E0E0E024
:102CB000E0E0E0E0E0E0E0E0E00000000000000034
:102CC000E0000000000000E0E0E0E0E0E0E0E0E044
:102CD000E0E0E0E0E0E0E0E0E0E0E0E0E0E0E0E0F4
:102CE000E0E0E0E0E0E0E0E0E0E0E0E0E0E0E0E0E4
:102CF000E0E0E0E0E0E0E0E0E0E0E0E0E000000074
:102D00002FE0E0E0E000000000E0E0E0E0E00000B4
:102D100000E0E0E0E0E0E0E0E0E0E0E0E0E0E0E093
:102D2000E0E0E0E0E0E0E0E0E0E0E0E0E0E0E0E0A3
:102D3000E0E0E0E0E0E0E0E0E02F000000E0E0E0E4
:102D4000E000000000E0E0E0E0000000E0E0E0E0A3
:102D5000E0E0E0E0E0E0E0E0E0E0E0E0E0E0E0E073
:102D6000E0E0E0E0E0E0E0E0E0E0E0E0E0E0E0E063
:102D7000E0E0E0E0E0E0E0E0E0E0004F4F4F4F4F08
:102D80004FE0004F4F4F4F4F4FE0004F4F4F4F4FCF
:102D90004FE0004F4F4F4F4F4FE0004F4F4F4F4FBF
:102DA0004FE0004F4F4F4F4F4FE0004F4F4F4F4FAF
:102DB0004FE0004F4F4F4F4F4F4F4F4F4F4F4F4FE1
:102DC0004F4F4F4F4F4F4F4F4F4F4F4F4F4F4F4F13
:102DD0004F4F4F4F4F4F4F4F4F4F4F4F4F4F4F4F03
:102DE0004F4F4F4F4F4F4F4F4F4F4F4F4F4F4F4FF3
:102DF0004F4F4F4F4F4F4F4F004F4F4F4F002020DF
:102E0000204F4F4F00202020204F4F4F00202020E8
:102E1000204F4F0000202020204F4F002020202056
:102E2000204F0020202020202000202020202020B3
:102E30002000202020202020201000E000E0E0E002
:102E4000E0100000E000E0E0E010100000E000E032
:102E5000001010100000E000E0101010100000E062
:102E60000010101010100000E010101010101000D2
:102E7000001010101010101010E0E0E0E0E0E0E0B2
:102E8000E0E0E0E0E0E0E0E0E0E0E0E0E0E0E0E042
:102E9000E000E0E0E0E0E0E0E0E000E0E0E0E0E0F2
:102EA000E000E000E000E0E0E0E000E000E000E062
:102EB0000000E000E000E000E0E0E0E0E0E0E0E072
:102EC000E0E0E0E0E0E0E0E0E0E0E0E0E0E0E0E002
:102ED000E0E0E0E0E0E0E0E0E0E0E0E0E0E0E0E0F2
:102EE000E0E0E0E0E0E0E0E0E0E0E0E0E0E0E0E0E2
:102EF000E000E0E0E0E0E0E0E04F4F4F4F4F4F4FA9
:102F00004F4F4F4F4F4F4F4F4F4F4F4F4F4F4F4FD1
:102F10004F4F4F4F4F4F4F4F4F4F4F4F4F4F4F4FC1
:102F20004F4F4F4F4F4F4F004F4F4F4F4F4F004F4F
:102F3000004F4F004F004F00004F4F4F4F4F4F007B
:102F4000004F4F4F4F4F4F00204F4F4F004F00004B
:102F5000204F4F004F000020204F004F0000202046
:102F600020004F0000202020204F000020202020A3
:102F700020002020202020202010000000E000E081
:102F8000001010100000E000E0101010100000E031
:102F90000010101010101000001010101010101061
:102FA0001010101010101010101010101010101021
:102FB000101010101010101010E000E000E000E001
:102FC0000000E000E000E000E0E000E000E000E001
:102FD0000000E000E000E000E00000E000E000E0D1
:102FE000002020000000E000E02020202020000041
:102FF000002020202020202020E000E000E000E051
:103000000000E000E000E000E0E000E000E000E0C0
:103010000000E000E000E000E0E000E000E000E0B0
:103020000000E000E000E000E00000E000E000E080
:10303000001000000000000000E000E000E000E000
:103040000000E000E000E000E0E000E000E000E080
:103050000000E000E000E000E0E000E000E000E070
:103060000000E000E000E000E0E000E000E000E060
:10307000000000000000000000E0004F004F004F83
:10308000000000004F004F004FE0004F004F004F86
:10309000000000004F004F004FE0004F004F004F76
:1030A000000000004F004F004FE0004F004F004F66
:1030B0000000000000000000004F004F004F004FD4
:1030C00000004F004F004F004F4F004F004F004F88
:1030D00000004F004F004F004F4F004F004F004F78
:1030E00000004F004F004F004F4F004F004F004F68
:1030F0000000000000000000004F004F004F004F94
:1031000000004F004F004F004F4F004F004F004F47
:1031100000004F004F004F004F4F004F004F004F37
:1031200000004F004F0000001000000000101010C1
:103130001010101010101010104F004F004F000012
:1031400000004F004F000020204F004F00002020C3
:1031500020000000202020202000202020202020EF
:10316000202020202020202020202020202020205F
:1031700020202020202020202010101010101010BF
:10318000101010101010101010101010101010103F
:10319000101010101010101000101010101010004F
:1031A00000101010100000000010101000000000AF
:1031B000001000000000000000202020202020201F
:1031C000002020200000000000200000000000007F
:1031D00000000000000000000000000000000000EF
:1031E00000000000000000000000000000000000DF
:1031F00000000000000000000000000000000000CF
:1032000000000000000000000000000000000000BE
:1032100000000000000000000000000000000000AE
:10322000000000000000000000000000000000009E
:10323000000000000000000000001010101010102E
:10324000100000000000101010000000000000003E
:10325000100000000000000000000000000000005E
:10326000000000000000000000000000000000005E
:10327000000000000000000000202020202020206E
:10328000202020202020202020202020202020203E
:10329000200020202020202020000020202020208E
:1032A000200000000020202020000000000020203E
:1032B000200000000000000020101010101010105E
:1032C000101010101010101000101010101010100E
:1032D000001010101010100000101010101000003E
:1032E000001010101010000000101010100000004E
:1032F000001010100000000000000000000000009E
:1033000000000000000000000000000000000000BD
:1033100000000000000000000000000000000000AD
:103320001D000000000000001D000000000000FF64
:10333000FF0000000000001D1D0000000000000054
:10334000000000000000000000000000000000007D
:1033500000001D1DFFFFFF1D1D1D1DFFFFFF1DFFA9
:103360001D1D1DFFFFFFFFFF1DFFFF00FFFFFF00F3
:10337000FF1D1D1D0000001D1D00000000000000BD
:10338000000000000000000000000000000000003D
:103390000000000000000000001D1D0000000000F3
:1033A000001D1D000000000000FFFFFF00000000E6
:1033B000001D1D1D000000000000000000000000B6
:1033C0000000000000FFFF00000000FFFFFFFF0003
:1033D0000000000000FFFF000000000000FFFF00F1
:1033E0000000000000FFFF000000000000FFFF00E1
:1033F000000000FFFFFFFFFFFF00000000000000D3
:103400000000FFFFFFFFFFFF0000FFFF000000FFC5
:10341000FF00FFFF000000FFFF00FFFF000000FFB4
:10342000FF00FFFFFFFFFFFF0000FFFF00000000A5
:103430000000FFFF0000000000000000000000008E
:103440000000FFFF000000000000FFFF0000000080
:103450000000FFFF000000000000FFFF0000000070
:103460000000FFFF000000000000FFFF0000000060
:103470000000FFFFFFFFFFFFFF0000000000000053
:1034800000000000FFFFFF00000000FFFF00FFFF43
:103490000000FFFF000000FFFF00FFFF000000FF33
:1034A000FF00FFFFFFFFFFFFFF00FFFF000000FF27
:1034B000FF00FFFF000000FFFF0000000000000011
:1034C0000000FFFF0000FFFF0000FFFF0000FFFF04
:1034D0000000FFFF0000FFFF000000FFFFFFFF00F4
:1034E00000000000FFFF000000000000FFFF0000E0
:1034F00000000000FFFF00000000000000000000CE
:103500000000FFFFFFFFFFFFFF00FFFF00000000C4
:103510000000FFFF000000000000FFFFFFFFFFFFB3
:103520000000FFFF000000000000FFFF000000009F
:103530000000FFFFFFFFFFFFFF0000000000000092
:103540000000FFFFFFFFFFFF0000FFFF000000FF84
:10355000FF00FFFF000000FFFF00FFFF0000FFFF74
:10356000FF00FFFFFFFFFF000000FFFF00FFFFFF66
:103570000000FFFF0000FFFFFF0000000000000050
:1035800000000000FFFFFFFFFF0000FFFF00000042
:103590000000FFFF000000000000FFFF0000FFFF31
:1035A000FF00FFFF000000FFFF0000FFFF0000FF23
:1035B000FF000000FFFFFFFFFF0000000000000011
:1035C0000000FFFF000000FFFF00FFFFFF00FFFF04
:1035D000FF00FFFFFFFFFFFFFF00FFFFFFFFFFFFF9
:1035E000FF00FFFF00FF00FFFF00FFFF000000FFE4
:1035F000FF00FFFF000000FFFF20202020202020F0
:1036000020002020202020202000202020202020FA
:10361000200000202020202020000000202020204A
:10362000200000002020202020000000002020207A
:1036300020000000000020202020202000000000AA
:1036400000202000000000000020200000000000FA
:10365000002000000000000000200000000000002A
:10366000002000000000000000200000000000001A
:1036700000000000000000000000000000001D1D10
:10368000B700000000B7B71DB7000000B7B7B71DFF
:10369000B7000000B71DB71D1D000000B7B71DB76C
:1036A000B700000000B71DB7B70000000000B7B7B3
:1036B000B70000000000B71D1D1D0000B7B7B70020
:1036C0000000FFFFFFB7FFFFFFB7FFFF00B700FFDE
:1036D000FFB7FFFF00B700FFFFB7FFFFFFB7FFFF18
:1036E000FFB7B7B7B7B7B7B7B71D1DB7B7B7B7B756
:1036F0001D1D1D1DB7B7B71D1D1DB71D1D000000E9
:103700000000B71DB7B7000000B7B71DB7B7B700C7
:1037100000B71D1DB71DB70000B7B7B71DB7B7007D
:1037200000B7B7B71DB70000001DB7B7B70000005E
:10373000001D1D1DB700000000000000000000007B
:103740000000000000E0E0E0E0000000E000000019
:10375000E000000000000000000000000000000089
:103760000000000000000000000000000000000059
:103770000000000000000000000000000000000049
:1037800000E0E0000000000000E0E00000000000B9
:1037900000E0E0E0000000E0E000E0E00000E0E049
:1037A000E000E0E0E0E0E000000000E0E000000019
:1037B000000000E0E0000000000000000000000049
:1037C0000000000000000000000027000000272784
:1037D000000027272727272700E000272727270083
:1037E00000000027272727000000000027272700C8
:1037F00000E0E0E0000027270000000000001010BB
:103800001000000000000010100000000000001078
:103810001000000000000000100000000000000088
:103820001000000000000000100000000000000078
:103830001000000000000000000000000000B7B70A
:103840001D000000000000B7B700000000FFFF00EF
:1038500000000000FFFFFFFFFF0000FFFFFF00FF71
:10386000FF00FFFFFF00FFFFFF00FFFFFF00FFFF64
:10387000FF00FFFF00FFFFFFFF1D1D1D1D1D1D1D84
:103880001DB700000000000000B7B7B7000000B788
:10389000B70000B7B7B7B7B700001D0000000000C1
:1038A0001D001D00FF00FF001D001D0000FF0000A7
:1038B0001DFF001D00FF001D001D1DB7B70000000B
:1038C00000B7B7B70000000000B70000FFFF00001E
:1038D0000000FFFFFFFFFF000000FFFF00FFFFFFF2
:1038E0000000FFFFFF00FFFFFF00FFFFFF00FFFFE3
:1038F000FF00FFFFFFFF00FFFF00000000000000CF
:10390000000000FFFFFFFFFF0000FFFF000000FFBF
:10391000FF0000000000FFFFFF000000FFFFFFFFAF
:10392000000000FFFFFFFF000000FFFFFF0000009E
:103930000000FFFFFFFFFFFFFF000000000000E0AE
:10394000000000000000E000000000000000E000B7
:103950000000000000E0E0E00000000000E0E0E027
:10396000E000000000E000E0E000000000E00000F7
:103970000000000000E0E000000000E0E0000000C7
:10398000000027000027000000002700002700009B
:10399000000000E0E000000000E0E0E0E0E0E0E047
:1039A000E0E0E0E0E0E0E0E0E000272727000000C2
:1039B0000000272727000000000000E0E0000000D2
:1039C00000000000E0E0000000000000E0E0E00097
:1039D000000000E0E0E0E00000E0E0E0E0E0E00027
:1039E00000E0000000E0E0000000000000E0E00077
:1039F0000000000000E000000000000000000000E7
:103A00000020000000000000002000000000000076
:103A10000020000000000000002000000000000066
:103A20000020200000000000002020000000000016
:103A30000020202000000000000000FF00FFFFFF2A
:103A4000FF000000FFFFFFFFFF000000FFFFFFFF80
:103A5000FF000000FF00000000000000FFFFFFFF6C
:103A6000FF000000FFFFFFFFFF00000000FFFFFF5F
:103A7000FF00000000FFFFFFFF00001D00FF001D12
:103A80000000001D1D001D1D0000FF001DB71D00D2
:103A9000FF00FF0000FF0000FF00FF00B7B7B70006
:103AA000FF00FF0000000000FF00FFFFFFFFFFFF1F
:103AB000FF00FFFFFFFFFFFFFFFFFFFFFFFF00FF14
:103AC00000FFFFFFFFFFFF0000FFFFFFFFFFFF0002
:103AD00000FF00000000FF0000FFFFFFFFFFFF00EE
:103AE00000FFFFFFFFFFFF0000FFFFFFFFFF0000E1
:103AF00000FFFFFFFFFF0000000000272700E0009D
:103B000000000027272700E0000000272700000012
:103B1000E0000000000000E0000000000027270097
:103B200027000000272727272700000000000000AB
:103B30000000000000000000000000000000000085
:103B40000000000000000000000000000000000075
:103B500000E0E000000000E0E00000E0E0E0E0E085
:103B6000000000000000000027000000000000002E
:103B7000270000000000000000000000E0E000005E
:103B8000000000E0E000000000E0E00000000000B5
:103B900000E0000000000000000000000000000045
:103BA000000027270000000000272727270000002B
:103BB0000000000000000000000000000000000005
:103BC00000000000000000001000000000000000E5
:103BD00010000000000000001000000000000000C5
:103BE0001000000000000010100000000000001095
:103BF0001000000000001010101010100000000055
:103C00000010101010000000001010101010000024
:103C100000101010101000000010101010101000F4
:103C200000101010101010100010101010101010B4
:103C30000010101010101010100000000000000004
:103C400000000000000000FFFF000000000000FF77
:103C5000FF00001D1D1D00FFFF001DFF1D1D1D009D
:103C600000001D1D1D1D1D1D1D00001D1D1D1D1DF8
:103C70001D00000000000000000000000000000027
:103C800000FFFFFF000000FFFFFFFFFF000000FF3D
:103C9000FFFFFFFF000000FFFF000000000000002A
:103CA000001D1D1D0000001D1D1D1D1D0000001D0F
:103CB0001D000000000000000000000000000000E7
:103CC00000FFFFFF0000000000FFFFFF00000000FA
:103CD00000FFFFFF001D1D1D000000001D1D1DFF3A
:103CE0001D1D1D1D1D1D1D1D1D1D1D1D1D1D1D1D04
:103CF0000000000000000000000000FFFFFFFF00C8
:103D00000000FF00000000FF00FF0000FFFF0000B8
:103D1000FFFF00FF00000000FFFF00FF00000000A9
:103D2000FFFF0000FFFF0000FF00FF00000000FF9A
:103D3000000000FFFFFFFF00000000000000000087
:103D400000000000FFFFFF00000000FF0000FFFF79
:103D50000000FFFF000000FFFF00FFFF000000FF6A
:103D6000FF00FFFF000000FFFF0000FFFF0000FF5B
:103D700000000000FFFFFF00000000000000000046
:103D8000000000FFFFFFFFFFFF0000000000FFFF3B
:103D90000000000000FFFF0000000000FFFFFFFF29
:103DA00000000000000000FFFF00FFFF000000FF18
:103DB000FF0000FFFFFFFFFF00FFFF000000FFFF0D
:103DC00000FFFFFF0000FFFF00FFFFFF0000FFFFFD
:103DD00000FFFF00FF00FFFF00FFFF00FF00FFFFED
:103DE00000FFFF0000FFFFFF00FFFF0000FFFFFFDD
:103DF00000FFFF000000FFFF00FFFF0000000000C9
:103E000000FFFF00000000000000000000000000B4
:103E100000FFFF00FFFF00FFFFFFFF00FFFFFF00AD
:103E2000FFFFFF00FFFF0000FFFFFF00FFFF00009C
:103E3000FFFFFF00FFFF0000FF0000000000000088
:103E4000000000FFFF0000000000FFFFFFFF000078
:103E5000000000FFFF0000FFFFFF00FFFF00FFFF6B
:103E600000FF00FFFF00FFFFFFFF00FFFF00FFFF5D
:103E700000FF00FFFF0000FFFF0000000000000047
:103E80000000000000000000000000000000000032
:103E900000FFFF0000FFFF00FF00FFFF00FFFFFF2C
:103EA00000FFFFFF00FFFF000000000000FFFF0019
:103EB00000FFFFFF00FFFF00000000000000000007
:103EC000FF00000000000000FF00000000000000F4
:103ED000FFFF000000FFFFFFFFFFFF00FFFF0000EC
:103EE000FFFFFF00FFFF0000FFFFFF00FFFF0000DC
:103EF000FFFFFF0000FFFFFFFFFF000000000000CA
:103F000000FF00000000000000FF000000000000B3
:103F100000FF0000FFFFFFFF00FF00FFFF0000FFAA
:103F2000FFFF00FFFF0000FFFFFF00FFFF0000FF9B
:103F3000FFFF0000FFFFFFFF000000000000202047
:103F40002000000000202020200000002020202051
:103F50002000000020202020200000202020202001
:103F60002000202020202020200020202020202091
:103F70002020202020202020201000000000000011
:103F800000101010000000000010101010000000C1
:103F90000010101010101000001010101010101051
:103FA0000010101010101010101010101010101021
:103FB0001010101010101010100000000000000071
:103FC00000000000000000000000000000000000F1
:103FD00000000000000000000000000000000000E1
:103FE0000020000000000000002020200000000051
:103FF00000202020202020200000000000000000E1
:1040000000000000000000000000000000000000B0
:1040100000000000000000000000000000000000A0
:104020000000000000000000100000000000101060
:104030001000101010101010100000000000000000
:104040002000000000002020200000000020202090
:1040500020000020202020202000202020202020C0
:104060002020202020202020202020202020202050
:104070002020202020202020200000000000000020
:1040800000000000000000000000004F4F004F4FF4
:1040900000004F4F4F4F4FFF4F004F4F4F4F4F4F6D
:1040A0004F00004F4F4F4F4F000000004F4F4F0049
:1040B00000000000004F0000001E1C000100010075
:1040C00001000100010001000100010001000100E8
:1040D00001000100010001000101000100010001D7
:1040E00000010001000100010001000100010001C8
:1040F00000010001000100000100010001000100B9
:1041000001000100010001000100010001000100A7
:104110000100010001010001000100010001000196
:104120000001000100010001000100010001000187
:10413000000100000102030405050505050505054C
:10414000050506070707070707070708090A0B0001
:1041500001010C0D0E0F101111111111111111117E
:10416000121313131313131313141515161700003A
:1041700018191A1B1B1B1B1B1B1C1D1E1D1F20217E
:104180002221212321242526271515280101291B59
:104190002A2B2C2D1B1B1B2E2F303132333435365E
:1041A0003738393A3B3C3D15153E00003F1B404136
:1041B00042434445464748494A4B4C4D4E4F505167
:1041C00052535455565715580101591B5A5B5C5DA3
:1041D0005E5F60616263626465666768696A6B6C92
:1041E0006D6E6F7015710000721B73747576777841
:1041F000797A7B7C7D7E7F80817D828384858687C2
:104200008815158901018A8B8C8D8E478F90911BA3
:104210001B1B1B1B921515151515151515151515B9
:1042200093940000019596971B1B1B1B1B1B1B1BCC
:104230001B1B9215151515151515151515989900B3
:10424000010100019A9B9C9D9D9D9D9D9D9D9D9D15
:104250009E9F9F9F9F9F9F9F9F9FA0A100010000E7
:104260000100010001000100010001000100010046
:104270000100010001000100010001000101000135
:104280000001000100010001000100010001000126
:104290000001000100010001000100000100010017
:1042A0000100010001000100010001000100010006
:1042B00001000100010001000101000100010001F5
:1042C00000010001000100010001000100010001E6
:1042D00000010001000100000100010001000100D7
:1042E00001000100010001000100010001000100C6
:1042F0000100010001010001A2A3A4A4A4A4A4A49C
:10430000A4A4A4A4A4A4A4A4A4A4A4A4A4A4A5A66A
:104310000001000001A7A4A8A9AAA4A4A4ABA4AC6E
:10432000ADAEAFB0B1A4B2AEB3B0A4A4A4A4B40077
:10433000010100B5A4B6B7B8A4A4A4A4A4A4A4A4DD
:10434000A4A4A4A4A4A4A4A4A4B9BABBBC010000BE
:1043500001A4A4BDBEBFA4A4A4C0A4ACADAEAFB024
:10436000B1A4B2AEB3B0A4C1C2C3A400010100C4E1
:10437000A4C5C6C7A4A4A4A4A4A4A4A4A4A4A4A497
:10438000A4A4A4A4A4C8C9CACB01000001CCA4CD94
:10439000CECFA4A4A4D0A4C0D1ABD2A4A4D3D4D54E
:1043A000D6D7D8A4A4A4D90001010001DADBA4A4C3
:1043B000A4A4A4A4A4A4A4A4A4A4A4A4A4A4A4A4BD
:1043C000A4A4DCDD000100000100010001000100E7
:1043D00001000100010001000100010001000100D5
:1043E00001000100010100010001000100010001C4
:1043F00000010001000100010001000100010001B5
:1044000000010000000000000000000000000000AB
:10441000000000000000000000000000000000009C
:10442000000000000000000000000000000000008C
:10443000000000000000000000000000000000007C
:10444000000000000000000000000000000000006C
:10445000000000000000000000000000000000005C
:10446000000000000000000000000000000000004C
:10447000000000000000000000000000000000003C
:104480000000000000000000000000000000004FDD
:104490004F004F4F00004F4F4F4F4FFF4F004F4FB8
:1044A0004F4F4F4F4F00004F4F4F4F4F00000000F6
:1044B0004F4F4F0000000000004F000000FFFF00C2
:1044C0000000FFFF00FFFFFF0000FFFF00FFFFFFF6
:1044D0000000FFFF00FFFF00FF00FFFF00FFFF00E5
:1044E000FF00FFFF00FFFF0000FFFFFF00FFFF00D6
:1044F00000FFFFFF00FFFF000000FFFF00FFFF00C5
:104500000000000000FFFF000000000000000000AD
:104510000000000000FFFF00FFFF00FFFFFFFF00A3
:10452000FFFFFF00FFFFFF00FFFF0000FFFFFF0096
:10453000FFFF0000FFFFFF00FFFF0000FF00000083
:1045400000000000000000FFFF0000000000FFFF6F
:10455000FFFF0000000000FFFF0000FFFFFF00FF63
:10456000FF00FFFF00FF00FFFF00FFFFFFFF00FF56
:10457000FF00FFFF00FF00FFFF0000FFFF00000043
:10458000000000000000000000000000000000002B
:104590000000000000FFFF0000FFFF00FF00FFFF22
:1045A00000FFFFFF00FFFFFF00FFFF000000000013
:1045B00000FFFF0000FFFFFF00FFFF000000000002
:1045C00000000000FF00000000000000FF000000ED
:1045D00000000000FFFF000000FFFFFFFFFFFF00E3
:1045E000FFFF0000FFFFFF00FFFF0000FFFFFF00D5
:1045F000FFFF0000FFFFFF0000FFFFFFFFFF0000C5
:104600000000000000FF00000000000000FF0000AC
:104610000000000000FF0000FFFFFFFF00FF00FFA1
:10462000FF0000FFFFFF00FFFF0000FFFFFF00FF94
:10463000FF0000FFFFFF0000FFFFFFFF0020202022
:10464000202020202020202020202020202020206A
:10465000202020202020202020202020202020205A
:10466000202020202020202020202020202020204A
:10467000202020202020202020202020201010106A
:10468000101010101010101010101010101010102A
:10469000101010101010101010101010101010101A
:1046A000101010101010101010101010101010100A
:1046B000101010101010101010101010100000002A
:1046C000000000000000E0E0000000E0E00000006A
:1046D000E0E0E0000000000000E000000000E0007A
:1046E00027002700E000E0E0E0E0E0E0E000E0009C
:1046F00000270000E00000E0E0E0E0E00000000053
:10470000000000000000000000000000000000E0C9
:10471000E0E0E0E00000E0E000E000E0E000E000D9
:1047200027002700E000E0E0E0E0E0E0E000E0E07B
:10473000002700E0E00000E0000000E000000000D2
:104740000000000000000000E000E0000000270082
:10475000272727002700002700000027000000006F
:10476000E000E0000000002727272727000000279F
:10477000274F272700000000274F270000000000D8
:104780000000000000000000E000E0000000270042
:1047900027272700270000270000002700002727E1
:1047A000E000E027270027272727272727002700C3
:1047B000000000002700002727272727000000000F
:1047C00000000000000027004F4F4F000000004F86
:1047D0000000004F27004F00E000E0004F004F4F67
:1047E0004F4F4F4F4F004F00270027004F00004F03
:1047F0000000004FE000E0004F4F4F0000000000BD
:1048000000000000000000004F4F4F002700274F1E
:104810000000004F00004F00E000E0004F004F4F4D
:104820004F4F4F4F4F004F00270027004F00E04FE2
:104830000000004F000000004F4F4F00E00000005C
:104840000000000000000000FFFFFF00000000FF6C
:104850000000FFFF0000FFFF000000FFFF00FFFF60
:10486000000000FFFF00FFFF000000FFFF0000FF4F
:10487000FF0000FF00000000FFFFFF00000000003D
:10488000000000000000000000FFFF00000000FF2B
:10489000FFFFFF000000000000FFFF00000000001D
:1048A00000FFFF000000000000FFFF00000000000C
:1048B00000FFFF00000000FFFFFFFFFFFF00000000
:1048C00000000000000000FFFFFFFFFF0000FFFFEF
:1048D000000000FFFF0000000000FFFFFF000000DD
:1048E000FFFFFFFF000000FFFFFFFF000000FFFFD2
:1048F000FF0000000000FFFFFFFFFFFFFF000000C0
:1049000000000000000000FFFFFFFFFFFF000000AD
:104910000000FFFF0000000000FFFF00000000009B
:10492000FFFFFFFF00000000000000FFFF00FFFF8F
:10493000000000FFFF0000FFFFFFFFFF000000007E
:10494000000000000000000000FFFFFF000000006A
:10495000FF00FFFF000000FF0000FFFF0000FF005E
:104960000000FFFF0000FFFFFFFFFFFFFF00000050
:104970000000FFFF000000000000FFFF000000003B
:10498000000000000000FFFFFFFFFFFFFF00FFFF30
:10499000000000000000FFFFFFFFFFFF000000001D
:1049A000000000FFFF000000000000FFFF00FFFF0D
:1049B000000000FFFF0000FFFFFFFFFF00000000FE
:1049C00000000000000000FFFFFFFFFF0000FFFFEE
:1049D000000000000000FFFF000000000000FFFFDB
:1049E000FFFFFFFF0000FFFF00000000FF00FFFFD0
:1049F00000000000FF0000FFFFFFFFFF00000000BD
:104A0000000000000000FFFFFFFFFFFFFF000000AD
:104A1000000000FFFF000000000000FFFF0000009A
:104A20000000FFFF0000000000FFFF00000000008A
:104A3000FFFF000000000000FFFF0000000000007A
:104A400000000000000000FFFFFFFFFF0000FFFF6D
:104A5000000000FFFF00FFFF000000FFFF0000FF5D
:104A6000FFFFFFFF0000FFFF000000FFFF00FFFF50
:104A7000000000FFFF0000FFFFFFFFFF000000003D
:104A800000000000000000FFFFFFFFFF0000FFFF2D
:104A9000000000FFFF00FFFF000000FFFF0000FF1D
:104AA000FFFFFFFFFF000000000000FFFF0000000D
:104AB000000000FFFF0000FFFFFFFFFF000000FFFE
:104AC000FFFFFF000000FF00000000FF00FF0000EC
:104AD000FFFF0000FFFF00FF00000000FFFF00FFDE
:104AE00000000000FFFF0000FFFF0000FF00FF00CC
:104AF000000000FF000000FFFFFFFF0000000000BB
:104B000000000000000000E0E0E0E0E0E000E0E0A5
:104B1000272727272700E027E0E0E0E0E000E0E0AB
:104B2000E0E0E0E0E000E0E0E0E0E0E0E000E0E045
:104B3000E0E0E0E0E00000E0E0E0E0E0E0000000D5
:104B4000000000000000E0E0E0E0E0E000002727D7
:104B5000272727E0E000E0E0E0E0E0E0E000E0E040
:104B6000E0E0E0E0E000E0E0E0E0E0E0E000E0E005
:104B7000E0E0E0E0E000E0E0E0E0E0E00000000095
:104B800000000000000000E0E0E0E0E00000E0E005
:104B9000272727E0E000E027E0E0E0E0E000E0E0B9
:104BA000E0E0E0E0E000E0E0E0E0E0E0E000E0E0C5
:104BB000E0E0E0E0E00000E0E0E0E0E00000000035
:104BC00000000000000000272727272727002727AD
:104BD000E0E0E0E0E00027E027272727270027275D
:104BE00027272727270027272727272727002727A3
:104BF0002727272727000027272727272700000008
:104C00000000000000002727272727270000E0E0FA
:104C1000E0E0E02727002727272727272700272747
:104C20002727272727002727272727272700272762
:104C300027272727270027272727272700000000C7
:104C40000000000000000027272727270000272753
:104C5000E0E0E027270027E027272727270027274E
:104C60002727272727002727272727272700272722
:104C700027272727270000272727272700000000AE
:104C80000000000000000000FFFFFF00000000FF28
:104C9000FF00FFFF0000FFFF000000FFFF00FFFF1D
:104CA000000000FFFF00FFFFFFFFFFFFFF00FFFF0F
:104CB000000000FFFF00FFFF000000FFFF000000FA
:104CC000000000000000FFFFFFFFFFFF0000FFFFEC
:104CD000000000FFFF00FFFF000000FFFF00FFFFDC
:104CE000FFFFFFFF0000FFFF000000FFFF00FFFFCE
:104CF000000000FFFF00FFFFFFFFFFFF00000000BC
:104D00000000000000000000FFFFFFFF000000FFA8
:104D1000FF0000FFFF00FFFF000000000000FFFF9A
:104D2000000000000000FFFF00000000000000FF86
:104D3000FF0000FFFF000000FFFFFFFF000000007A
:104D4000000000000000FFFFFFFFFFFF0000FFFF6B
:104D5000000000FFFF00FFFF000000FFFF00FFFF5B
:104D6000000000FFFF00FFFF000000FFFF00FFFF4B
:104D7000000000FFFF00FFFFFFFFFFFF000000003B
:104D8000000000000000FFFFFFFFFFFFFF00FFFF2C
:104D9000000000000000FFFF000000000000FFFF17
:104DA000FFFFFFFF0000FFFF000000000000FFFF0B
:104DB000000000000000FFFFFFFFFFFFFF000000FA
:104DC000000000000000FFFFFFFFFFFFFF00FFFFEC
:104DD000000000000000FFFF000000000000FFFFD7
:104DE000FFFFFFFF0000FFFF000000000000FFFFCB
:104DF000000000000000FFFF0000000000000000B5
:104E00000000000000000000FFFFFFFFFF0000FFA8
:104E1000FF0000000000FFFF000000000000FFFF97
:104E20000000FFFFFF00FFFF000000FFFF0000FF8A
:104E3000FF0000FFFF000000FFFFFFFFFF0000007A
:104E4000000000000000FFFF000000FFFF00FFFF68
:104E5000000000FFFF00FFFF000000FFFF00FFFF5A
:104E6000FFFFFFFFFF00FFFF000000FFFF00FFFF4D
:104E7000000000FFFF00FFFF000000FFFF00000038
:104E800000000000000000FFFFFFFFFFFF00000028
:104E900000FFFF000000000000FFFF000000000016
:104EA00000FFFF000000000000FFFF000000000006
:104EB00000FFFF00000000FFFFFFFFFFFF000000FA
:104EC0000000000000000000000000FFFF000000E4
:104ED000000000FFFF000000000000FFFF000000D6
:104EE000000000FFFF000000000000FFFF00FFFFC8
:104EF000000000FFFF0000FFFFFFFFFF00000000B9
:104F0000000000000000FFFF000000FFFF00FFFFA7
:104F10000000FFFF0000FFFF00FFFF000000FFFF99
:104F2000FFFF00000000FFFF00FFFF000000FFFF89
:104F30000000FFFF0000FFFF000000FFFF00000077
:104F4000000000000000FFFF000000000000FFFF65
:104F5000000000000000FFFF000000000000FFFF55
:104F6000000000000000FFFF000000000000FFFF45
:104F7000000000000000FFFFFFFFFFFFFF00000038
:104F8000000000000000FFFF000000FFFF00FFFF27
:104F9000FF00FFFFFF00FFFFFFFFFFFFFF00FFFF1E
:104FA000FFFFFFFFFF00FFFF00FF00FFFF00FFFF0D
:104FB000000000FFFF00FFFF000000FFFF000000F7
:104FC000000000000000FFFF000000FFFF00FFFFE7
:104FD000FF0000FFFF00FFFFFFFF00FFFF00FFFFDC
:104FE00000FF00FFFF00FFFF00FFFFFFFF00FFFFCC
:104FF0000000FFFFFF00FFFF000000FFFF000000B8
:1050000000000000000000FFFFFFFFFF0000FFFFA7
:10501000000000FFFF00FFFF000000FFFF00FFFF98
:10502000000000FFFF00FFFF000000FFFF00FFFF88
:10503000000000FFFF0000FFFFFFFFFF0000000077
:10504000000000000000FFFFFFFFFFFF0000FFFF68
:10505000000000FFFF00FFFF000000FFFF00FFFF58
:10506000000000FFFF00FFFFFFFFFFFF0000FFFF4A
:10507000000000000000FFFF000000000000000032
:1050800000000000000000FFFFFFFFFF0000FFFF27
:10509000000000FFFF00FFFF000000FFFF00FFFF18
:1050A00000FF00FFFF00FFFF00FFFFFFFF0000FF0A
:1050B000FFFFFFFF00000000000000FFFF000000F6
:1050C000000000000000FFFFFFFFFFFF0000FFFFE8
:1050D000000000FFFF00FFFF000000FFFF00FFFFD8
:1050E0000000FFFFFF00FFFFFFFFFF000000FFFFCA
:1050F00000FFFFFF0000FFFF0000FFFFFF000000B8
:1051000000000000000000FFFFFFFFFF0000FFFFA6
:10511000000000FFFF00FFFF00000000000000FF94
:10512000FFFFFFFF00000000000000FFFF00FFFF87
:10513000000000FFFF0000FFFFFFFFFF0000000076
:10514000000000000000FFFFFFFFFFFF0000000065
:10515000FFFF000000000000FFFF00000000000053
:10516000FFFF000000000000FFFF00000000000043
:10517000FFFF000000000000FFFF00000000000033
:10518000000000000000FFFF000000FFFF00FFFF25
:10519000000000FFFF00FFFF000000FFFF00FFFF17
:1051A000000000FFFF00FFFF000000FFFF00FFFF07
:1051B000000000FFFF0000FFFFFFFFFF00000000F6
:1051C000000000000000FFFF000000FFFF00FFFFE5
:1051D000000000FFFF00FFFF000000FFFF00FFFFD7
:1051E000FF00FFFFFF0000FFFFFFFFFF00000000C8
:1051F000FFFFFF000000000000FF000000000000B3
:10520000000000000000FFFF000000FFFF00FFFFA4
:10521000000000FFFF00FFFF00FF00FFFF00FFFF97
:10522000FFFFFFFFFF00FFFFFFFFFFFFFF00FFFF8C
:10523000FF00FFFFFF00FFFF000000FFFF00000076
:10524000000000000000FFFF000000FFFF00FFFF64
:10525000FF00FFFFFF0000FFFFFFFFFF0000000057
:10526000FFFFFF00000000FFFFFFFFFF0000FFFF48
:10527000FF00FFFFFF00FFFF000000FFFF00000036
:10528000000000000000FFFF0000FFFF0000FFFF24
:105290000000FFFF0000FFFF0000FFFF000000FF15
:1052A000FFFFFF0000000000FFFF00000000000003
:1052B000FFFF000000000000FFFF000000000000F2
:1052C000000000000000FFFFFFFFFFFFFF000000E5
:1052D0000000FFFFFF00000000FFFFFF00000000D4
:1052E000FFFFFF00000000FFFFFF00000000FFFFC6
:1052F000FF0000000000FFFFFFFFFFFFFF000000B6
:10530000000000000000004F4F4F4F4F4F004F4F25
:105310002727272727004F274F4F4F4F4F004F4F2B
:105320004F4F4F4F4F004F4F4F4F4F4F4F004F4F2B
:105330004F4F4F4F4F00004F4F4F4F4F4F00000008
:105340000000000000004F4F4F4F4F4F0000272735
:105350002727274F4F004F4F4F4F4F4F4F004F4F73
:105360004F4F4F4F4F004F4F4F4F4F4F4F004F4FEB
:105370004F4F4F4F4F004F4F4F4F4F4F00000000C8
:10538000000000000000004F4F4F4F4F00004F4FF4
:10539000E0E0E04F4F004FE04F4F4F4F4F004F4F77
:1053A0004F4F4F4F4F004F4F4F4F4F4F4F004F4FAB
:1053B0004F4F4F4F4F00004F4F4F4F4F0000272789
:1053C00027272727270027272727272727002727BB
:1053D0002727272727000027272727270000002720
:1053E00027272727000000002727270000000000AC
:1053F0002727270000000000002700000000000011
:105400000027000000000000272727000000000000
:10541000272727000000002727272727000000272D
:105420002727272700002727272727272700272781
:1054300027272727270027272727272727EDEDEDD1
:10544000EDEDEDEDEDED0000EDEDEDEDEDED000040
:10545000EDEDEDEDEDED0000EDEDEDEDEDED000030
:10546000EDEDEDEDEDED0000EDEDEDEDEDED000020
:10547000EDEDEDEDEDED00000000000000EDEDEDD7
:10548000EDEDEDEDEDED00000000000000ED0000A1
:10549000EDEDEDEDEDED0000EDEDEDEDEDED0000F0
:1054A00000000000EDED0000EDEDEDEDEDED000094
:1054B000EDEDEDEDEDED00000000000000EDEDED97
:1054C000EDEDEDEDEDED0000EDEDED0000ED00009A
:1054D000EDEDED0000ED0000EDEDED0000ED000064
:1054E00000ED000000EDED0000000000EDEDEDED41
:1054F000000000EDEDEDEDEDED00EDEDEDEDEDED90
:10550000EDEDEDEDEDEDED0000000000EDED000046
:10551000EDEDED0000ED0000EDEDEDEDEDEDED005C
:1055200000000000EDEDEDEDEDEDED0000ED000013
:10553000EDEDED0000EDED0000000000EDEDEDED16
:10554000EDEDEDEDEDED000000000000EDED0000F3
:10555000EDEDED0000ED0000EDEDED0000ED0000E3
:10556000EDEDED0000ED000000000000EDED0000AD
:10557000EDEDEDEDEDED0000EDEDEDEDEDEDEDED35
:10558000EDEDEDEDEDED000000000000EDED0000B3
:10559000EDEDED0000ED0000EDEDED0000ED0000A3
:1055A000EDEDED0000ED0000EDEDED0000ED000093
:1055B000EDEDED0000ED000000000000EDEDEDED83
:1055C000EDEDEDEDEDEDED000000000000EDEDED99
:1055D000ED0000EDEDEDEDEDED0000EDEDEDEDEDAF
:1055E000ED0000EDEDEDEDEDED0000EDEDEDEDED9F
:1055F000ED0000EDEDEDED000000000000EDEDED43
:10560000EDEDEDEDEDED000000000000EDED000032
:10561000EDEDED0000ED0000EDEDED0000ED000022
:10562000EDED000000ED0000000000EDEDED0000EC
:10563000ED000000EDED0000EDED000000EDEDED02
:10564000EDEDEDEDEDED0000EDEDED0000ED000018
:10565000EDEDED0000ED0000EDEDED0000ED0000E2
:10566000EDEDED0000ED0000EDEDED0000ED0000D2
:10567000EDEDED0000EDED0000000000EDEDEDEDD5
:10568000EDEDEDEDEDED0000EDEDED0000ED0000D8
:1056900000ED000000ED00000000000000ED000043
:1056A0000000000000ED0000ED00ED0000ED000046
:1056B000EDEDED0000ED0000EDEDED0000EDEDEDA8
:1056C000EDEDEDEDEDED000000000000EDEDEDED98
:1056D0000000EDEDEDEDEDED0000EDEDEDEDEDEDAE
:1056E0000000EDEDEDEDEDED0000EDEDEDEDEDED9E
:1056F0000000EDEDEDEDEDED0000EDEDEDEDEDED8E
:10570000EDEDEDEDEDEDEDED000000EDEDEDED007D
:10571000EDED0000EDED0000EDEDED0000ED000021
:10572000EDEDED0000ED0000EDEDED0000EDED0024
:1057300000EDED00EDEDEDED000000EDEDEDEDED3A
:10574000EDEDEDEDEDEDEDEDED0000EDEDEDED0050
:10575000000000EDEDEDEDEDED0000EDEDEDEDED1A
:10576000ED0000EDEDEDEDEDED0000EDEDEDEDED1D
:10577000ED0000EDEDEDED000000000000EDEDEDC1
:10578000EDEDEDEDEDEDED0000000000EDED0000C4
:10579000EDEDED0000EDEDEDEDED000000EDEDEDDA
:1057A00000000000EDEDED00000000EDEDED00006B
:1057B00000EDEDEDEDED00000000000000EDEDED81
:1057C000EDEDEDEDEDEDED000000000000EDEDED97
:1057D000EDED0000EDEDEDEDED0000EDEDEDEDEDAD
:1057E00000000000EDEDEDEDEDEDED0000ED000051
:1057F000EDEDED0000EDED0000000000EDEDEDED54
:10580000EDEDEDEDEDEDEDEDED000000EDEDEDED8F
:1058100000ED0000EDEDED00EDED0000EDED00ED33
:10582000EDED0000EDED00000000000000EDEDEDFD
:10583000EDED0000EDEDEDEDEDED0000EDEDEDED4C
:10584000EDEDEDEDEDED00000000000000ED0000DD
:10585000EDEDEDEDEDED000000000000EDEDEDED06
:10586000EDEDED0000EDEDEDEDEDED0000ED0000F6
:10587000EDEDED0000EDED0000000000EDEDEDEDD3
:10588000EDEDEDEDEDEDED0000000000EDED0000C3
:10589000EDEDEDEDEDED0000EDEDEDEDEDED0000EC
:1058A00000000000EDED0000EDEDEDED00ED00007D
:1058B000EDEDEDED00EDED0000000000EDEDEDEDA6
:1058C000EDEDEDEDEDED00000000000000EDEDED83
:1058D000EDEDED0000EDEDEDEDEDED0000EDEDEDAC
:1058E000EDED0000EDEDEDEDED0000EDEDEDEDED9C
:1058F0000000EDEDEDEDEDED0000EDEDEDEDEDED8C
:10590000EDEDEDEDEDEDED0000000000EDED000042
:10591000EDEDED0000ED0000EDEDED0000EDED0032
:1059200000000000EDED0000EDEDED0000ED0000E9
:10593000EDEDED0000EDED0000000000EDEDEDED12
:10594000EDEDEDEDEDEDED0000000000EDED000002
:10595000EDEDED0000ED0000EDEDED0000EDED00F2
:105960000000000000EDEDEDEDEDED0000EDEDEDE2
:10597000EDEDED0000EDED0000000000EDEDEDEDD2
:10598000EDEDEDEDEDEDED0000000000EDED0000C2
:10599000EDEDED0000ED0000EDEDED0000ED00009F
:1059A000EDEDED0000ED0000EDEDED0000ED00008F
:1059B000EDEDED0000EDED0000000000EDEDEDED92
:1059C000EDEDEDEDEDED000000000000EDED00006F
:1059D000EDEDED0000ED0000EDEDED0000ED00005F
:1059E000EDEDED0000ED000000000000EDED000029
:1059F000EDEDEDEDEDED0000EDEDEDEDEDEDEDEDB1
:105A0000EDEDEDEDEDEDEDED00000000EDEDED0067
:105A100000EDED0000ED0000EDEDEDEDEDED000031
:105A2000EDEDEDEDEDED0000EDEDEDEDEDEDED006D
:105A300000EDED0000EDEDED00000000ED4F4F4FEB
:105A40004F4F4F4F4F4F4F4F4F4F4F4F4F4F4F4F66
:105A50004F4F4F4F4F4F4F4F4F4F4F4F4F4F4F4F56
:105A60004F4F4F4F4F4F4F4F4F4F4F4F4F4F4F4F46
:105A70004F4F4F4F4F4F4F4F4F4F4F4F4F272727AE
:105A800027272727272727272727272727272727A6
:105A90002727272727272727272727272727272796
:105AA0002727272727272727272727272727272786
:105AB000272727272727272727272727274F4F004D
:105AC00000000000004F004F4F4F4F4F4F004F4F0F
:105AD0004F00000000004F4F00E0E0E0E0004F000A
